{
  "contractName": "EscrowFactory",
  "abi": [
    {
      "anonymous": false,
      "inputs": [
        {
          "indexed": false,
          "name": "session_id_hash",
          "type": "bytes32"
        },
        {
          "indexed": false,
          "name": "escrow_contract",
          "type": "address"
        }
      ],
      "name": "escrow_opened",
      "type": "event",
      "signature": "0xf3f9f1914b513fe09823b581ac7bf3b7d4d4327e8f6ccb4ff08376a224331d41"
    },
    {
      "constant": false,
      "inputs": [
        {
          "name": "_title_transfer_hash",
          "type": "bytes32"
        },
        {
          "name": "_session_id_hash",
          "type": "bytes32"
        }
      ],
      "name": "open_escrow",
      "outputs": [],
      "payable": false,
      "stateMutability": "nonpayable",
      "type": "function",
      "signature": "0xdbbf0708"
    },
    {
      "constant": true,
      "inputs": [
        {
          "name": "_session_id_hash",
          "type": "bytes32"
        }
      ],
      "name": "get_escrow",
      "outputs": [
        {
          "name": "",
          "type": "address"
        }
      ],
      "payable": false,
      "stateMutability": "view",
      "type": "function",
      "signature": "0xe94b2c5a"
    }
  ],
  "bytecode": "0x608060405234801561001057600080fd5b50611535806100206000396000f3fe608060405234801561001057600080fd5b50600436106100365760003560e01c8063dbbf07081461003b578063e94b2c5a14610073575b600080fd5b6100716004803603604081101561005157600080fd5b8101908080359060200190929190803590602001909291905050506100e1565b005b61009f6004803603602081101561008957600080fd5b8101908080359060200190929190505050610216565b604051808273ffffffffffffffffffffffffffffffffffffffff1673ffffffffffffffffffffffffffffffffffffffff16815260200191505060405180910390f35b60008233836040516100f290610252565b808481526020018373ffffffffffffffffffffffffffffffffffffffff1673ffffffffffffffffffffffffffffffffffffffff1681526020018281526020019350505050604051809103906000f080158015610152573d6000803e3d6000fd5b5090508060008084815260200190815260200160002060006101000a81548173ffffffffffffffffffffffffffffffffffffffff021916908373ffffffffffffffffffffffffffffffffffffffff1602179055507ff3f9f1914b513fe09823b581ac7bf3b7d4d4327e8f6ccb4ff08376a224331d418282604051808381526020018273ffffffffffffffffffffffffffffffffffffffff1673ffffffffffffffffffffffffffffffffffffffff1681526020019250505060405180910390a1505050565b600080600083815260200190815260200160002060009054906101000a900473ffffffffffffffffffffffffffffffffffffffff169050919050565b6112aa806102608339019056fe60806040526000600760006101000a81548160ff0219169083151502179055506000600760016101000a81548160ff0219169083151502179055506000600760026101000a81548160ff0219169083151502179055506000600760036101000a81548160ff0219169083151502179055506000600760046101000a81548160ff0219169083151502179055506000600760056101000a81548160ff0219169083151502179055506000600760066101000a81548160ff0219169083151502179055503480156100cd57600080fd5b506040516060806112aa833981018060405260608110156100ed57600080fd5b8101908080519060200190929190805190602001909291908051906020019092919050505081600160006101000a81548173ffffffffffffffffffffffffffffffffffffffff021916908373ffffffffffffffffffffffffffffffffffffffff16021790555082600481905550806005819055506001600760016101000a81548160ff021916908315150217905550738a23c7c42333ed6be5a68c24031cd7a737fbcbe8600260006101000a81548173ffffffffffffffffffffffffffffffffffffffff021916908373ffffffffffffffffffffffffffffffffffffffff1602179055506001600760046101000a81548160ff0219169083151502179055505050506110ac806101fe6000396000f3fe60806040526004361061007b5760003560e01c80639952f1bb1161004e5780639952f1bb146101a35780639c8f6fb3146101ba578063b214faa5146101e9578063d659d968146102175761007b565b806302bb9f42146100805780630dada3d21461010a5780631e7874921461014557806355a022261461015c575b600080fd5b34801561008c57600080fd5b50610095610246565b604051808373ffffffffffffffffffffffffffffffffffffffff1673ffffffffffffffffffffffffffffffffffffffff1681526020018273ffffffffffffffffffffffffffffffffffffffff1673ffffffffffffffffffffffffffffffffffffffff1681526020019250505060405180910390f35b34801561011657600080fd5b506101436004803603602081101561012d57600080fd5b810190808035906020019092919050505061029c565b005b34801561015157600080fd5b5061015a6103eb565b005b34801561016857600080fd5b506101a16004803603604081101561017f57600080fd5b8101908080359060200190929190803515159060200190929190505050610541565b005b3480156101af57600080fd5b506101b8610837565b005b3480156101c657600080fd5b506101cf610b2c565b604051808215151515815260200191505060405180910390f35b610215600480360360208110156101ff57600080fd5b8101908080359060200190929190505050610b43565b005b34801561022357600080fd5b5061022c610daf565b604051808215151515815260200191505060405180910390f35b600080600160009054906101000a900473ffffffffffffffffffffffffffffffffffffffff166000809054906101000a900473ffffffffffffffffffffffffffffffffffffffff16819150809050915091509091565b600760049054906101000a900460ff1661031e576040517f08c379a00000000000000000000000000000000000000000000000000000000081526004018080602001828103825260158152602001807f54686520657363726f7720697320636c6f7365642e000000000000000000000081525060200191505060405180910390fd5b600260009054906101000a900473ffffffffffffffffffffffffffffffffffffffff1673ffffffffffffffffffffffffffffffffffffffff163373ffffffffffffffffffffffffffffffffffffffff16146103e1576040517f08c379a000000000000000000000000000000000000000000000000000000000815260040180806020018281038252601a8152602001807f417574686f72697a6174696f6e20756e7375636365737366756c00000000000081525060200191505060405180910390fd5b8060068190555050565b600760049054906101000a900460ff1661046d576040517f08c379a00000000000000000000000000000000000000000000000000000000081526004018080602001828103825260158152602001807f54686520657363726f7720697320636c6f7365642e000000000000000000000081525060200191505060405180910390fd5b600160009054906101000a900473ffffffffffffffffffffffffffffffffffffffff1673ffffffffffffffffffffffffffffffffffffffff163373ffffffffffffffffffffffffffffffffffffffff1614610513576040517f08c379a000000000000000000000000000000000000000000000000000000000815260040180806020018281038252602d815260200180610fee602d913960400191505060405180910390fd5b7fa65551aa3a105e8f97709f58b42ccca7365b7f76b8ae65c2257b92c3b088a7a560405160405180910390a1565b600760049054906101000a900460ff166105c3576040517f08c379a00000000000000000000000000000000000000000000000000000000081526004018080602001828103825260158152602001807f54686520657363726f7720697320636c6f7365642e000000000000000000000081525060200191505060405180910390fd5b600160009054906101000a900473ffffffffffffffffffffffffffffffffffffffff1673ffffffffffffffffffffffffffffffffffffffff163373ffffffffffffffffffffffffffffffffffffffff16148061066b57506000809054906101000a900473ffffffffffffffffffffffffffffffffffffffff1673ffffffffffffffffffffffffffffffffffffffff163373ffffffffffffffffffffffffffffffffffffffff16145b61067457600080fd5b60065482146106eb576040517f08c379a00000000000000000000000000000000000000000000000000000000081526004018080602001828103825260198152602001807f5469746c652064726166742068617368206d69736d617463680000000000000081525060200191505060405180910390fd5b600160009054906101000a900473ffffffffffffffffffffffffffffffffffffffff1673ffffffffffffffffffffffffffffffffffffffff163373ffffffffffffffffffffffffffffffffffffffff1614156107605780600760036101000a81548160ff0219169083151502179055506107d1565b6000809054906101000a900473ffffffffffffffffffffffffffffffffffffffff1673ffffffffffffffffffffffffffffffffffffffff163373ffffffffffffffffffffffffffffffffffffffff1614156107d05780600760026101000a81548160ff0219169083151502179055505b5b600760029054906101000a900460ff1680156107f95750600760039054906101000a900460ff165b15610833577f15bcf09c9c3c9a97f930a992ea1d7cebdaf63d8f42692f9147beadd45d83562960405160405180910390a1610832610dc6565b5b5050565b600760049054906101000a900460ff166108b9576040517f08c379a00000000000000000000000000000000000000000000000000000000081526004018080602001828103825260158152602001807f54686520657363726f7720697320636c6f7365642e000000000000000000000081525060200191505060405180910390fd5b600760069054906101000a900460ff161561093c576040517f08c379a000000000000000000000000000000000000000000000000000000000815260040180806020018281038252601a8152602001807f54686520657363726f7720776173207465726d696e617465642e00000000000081525060200191505060405180910390fd5b600160009054906101000a900473ffffffffffffffffffffffffffffffffffffffff1673ffffffffffffffffffffffffffffffffffffffff163373ffffffffffffffffffffffffffffffffffffffff1614806109e457506000809054906101000a900473ffffffffffffffffffffffffffffffffffffffff1673ffffffffffffffffffffffffffffffffffffffff163373ffffffffffffffffffffffffffffffffffffffff16145b6109ed57600080fd5b6000600354905060006003819055506000809054906101000a900473ffffffffffffffffffffffffffffffffffffffff1673ffffffffffffffffffffffffffffffffffffffff166108fc829081150290604051600060405180830381858888f19350505050158015610a63573d6000803e3d6000fd5b506001600760066101000a81548160ff0219169083151502179055507fab65f936fe09c9bc08737014f10126c44d9d323a79972e2b2c5082755e7a530233604051808273ffffffffffffffffffffffffffffffffffffffff1673ffffffffffffffffffffffffffffffffffffffff16815260200191505060405180910390a16000600760046101000a81548160ff0219169083151502179055507fe1760e1470c9ffbe1944bf685aff5b043b446cc4cbb2ca06dfe196a5c031008f60405160405180910390a150565b6000600760059054906101000a900460ff16905090565b600760049054906101000a900460ff16610bc5576040517f08c379a00000000000000000000000000000000000000000000000000000000081526004018080602001828103825260158152602001807f54686520657363726f7720697320636c6f7365642e000000000000000000000081525060200191505060405180910390fd5b600160009054906101000a900473ffffffffffffffffffffffffffffffffffffffff1673ffffffffffffffffffffffffffffffffffffffff163373ffffffffffffffffffffffffffffffffffffffff161415610c2057600080fd5b60001515600760059054906101000a900460ff16151514610ca9576040517f08c379a000000000000000000000000000000000000000000000000000000000815260040180806020018281038252601e8152602001807f536f7272792074686520657363726f77206973206e6f77206c6f636b6564000081525060200191505060405180910390fd5b6004548114610d03576040517f08c379a000000000000000000000000000000000000000000000000000000000815260040180806020018281038252602c81526020018061101b602c913960400191505060405180910390fd5b6001600760056101000a81548160ff021916908315150217905550336000806101000a81548173ffffffffffffffffffffffffffffffffffffffff021916908373ffffffffffffffffffffffffffffffffffffffff160217905550346003819055506001600760006101000a81548160ff0219169083151502179055507f43270d591744ea0d1e0029cd7d0c92a69a1e4d6d14aa575c812c62300dc42b0360405160405180910390a150565b6000600760049054906101000a900460ff16905090565b600760049054906101000a900460ff16610e48576040517f08c379a00000000000000000000000000000000000000000000000000000000081526004018080602001828103825260158152602001807f54686520657363726f7720697320636c6f7365642e000000000000000000000081525060200191505060405180910390fd5b60011515600760029054906101000a900460ff161515148015610e7e575060011515600760039054906101000a900460ff161515145b610ed3576040517f08c379a000000000000000000000000000000000000000000000000000000000815260040180806020018281038252603a815260200180611047603a913960400191505060405180910390fd5b600060035490506000600381905550600160009054906101000a900473ffffffffffffffffffffffffffffffffffffffff1673ffffffffffffffffffffffffffffffffffffffff166108fc829081150290604051600060405180830381858888f19350505050158015610f4a573d6000803e3d6000fd5b507f9d23ed731d81f86ea3aaf49d43c24318ca8df59662c1f7de4807a05469f9683a60405160405180910390a17f54dd20ef2439b3205844bab91564715a17fa06e8eb9cedcd5c1898a89250164160405160405180910390a16000600760046101000a81548160ff0219169083151502179055507fe1760e1470c9ffbe1944bf685aff5b043b446cc4cbb2ca06dfe196a5c031008f60405160405180910390a15056fe4f6e6c79207468652073656c6c65722063616e20726571756573742061207469746c65207472616e736665722e536f727279207468617420697320616e20696e76616c6964207469746c65207472616e7366657220686173684e65656420626f7468207061727469657320746f206167726565206265666f726520616e792066756e647320617265206469736275727365642ea165627a7a723058206b35ce730e7e05c9a63d7d7f97eda6b5200fe81863542933a5d2eb579cb94c3f0029a165627a7a723058206e09868eeb094360a10f0ef78dee03d2f68d91acdf064c2e68c6ef5238a1df680029",
  "source": "pragma solidity ^0.5.7;\r\n\r\ncontract EscrowFactory {\r\n\r\n\t// State\r\n\tmapping(bytes32 => address) escrow_contracts;\r\n\r\n\t// Events\r\n\tevent escrow_opened(bytes32 session_id_hash, address escrow_contract);\r\n\r\n\t// Behaviour\r\n\tfunction open_escrow(bytes32 _title_transfer_hash, bytes32 _session_id_hash)\r\n\tpublic\r\n\t{\r\n\t\taddress escrow = address(new Escrow(_title_transfer_hash, msg.sender, _session_id_hash));\r\n\t\tescrow_contracts[_session_id_hash] = escrow;\r\n\r\n\t\temit escrow_opened(_session_id_hash, escrow);\r\n\t}\r\n\r\n\tfunction get_escrow(bytes32 _session_id_hash)\r\n\tpublic view\r\n\treturns (address)\r\n\t{\r\n\t\treturn escrow_contracts[_session_id_hash];\r\n\t}\r\n}\r\n\r\ncontract Escrow {\r\n\r\n\t// State\r\n\taddress payable buyer;\r\n\taddress payable seller;\r\n\taddress private escrowOracle;\r\n\tuint funds;\r\n\r\n\tbytes32 title_transfer_hash;\r\n\tbytes32 session_id_hash;\r\n\tbytes32 title_draft_hash;\r\n\r\n\tbool buyer_transfer_greenlight = false;\r\n\tbool seller_transfer_greenlight = false;\r\n\r\n\tbool buyer_title_draft_greenlight = false;\r\n\tbool seller_title_draft_greenlight = false;\r\n\r\n\tbool open = false;\r\n\tbool locked = false;\r\n\tbool terminated = false;\r\n\r\n\r\n\t// Events\r\n\tevent buyer_deposit_complete();\r\n\tevent title_transfer_requested();\r\n\tevent funds_disbursed();\r\n\tevent escrow_closed();\r\n\tevent escrow_terminated(address requester);\r\n\tevent commit_title_transfer();\r\n\tevent release_holding_deposit();\r\n\r\n\r\n\t// Constructor\r\n\tconstructor(bytes32 _title_transfer_hash, address payable _seller, bytes32 _session_id_hash)\r\n\tpublic\r\n\t{\r\n\t\t// Setup the seller\r\n\t\tseller = _seller;\r\n\t\ttitle_transfer_hash = _title_transfer_hash;\r\n\t\tsession_id_hash = _session_id_hash;\r\n\t\tseller_transfer_greenlight = true;\r\n\t\tescrowOracle = 0x8a23c7C42333ed6be5a68c24031cd7A737fbcBE8;\r\n\t\topen = true;\r\n\t}\r\n\r\n\r\n\t// Modifiers\r\n\tmodifier openEscrow() {\r\n\t\trequire(open, \"The escrow is closed.\");\r\n\t\t_;\r\n\t}\r\n\r\n\tmodifier notTerminated() {\r\n\t\trequire(!terminated, \"The escrow was terminated.\");\r\n\t\t_;\r\n\t}\r\n\r\n\r\n\t// Behaviour\r\n\r\n\t\t// Handle deposits\r\n\tfunction deposit(bytes32 _title_transfer_hash)\r\n\tpublic payable openEscrow\r\n\t{\r\n\t\trequire(msg.sender != seller);\r\n\t\trequire(locked == false, \"Sorry the escrow is now locked\");\r\n\t\trequire(_title_transfer_hash == title_transfer_hash, \"Sorry that is an invalid title transfer hash\");\r\n\r\n\t\tlocked = true;\r\n\r\n\t\tbuyer = msg.sender;\r\n\t\tfunds = msg.value;\r\n\t\tbuyer_transfer_greenlight = true;\r\n\r\n\t\temit buyer_deposit_complete();\r\n\t}\r\n\r\n\t\t// Handle title transfer request\r\n\tfunction request_title_transfer()\r\n\tpublic openEscrow\r\n\t{\r\n\t\trequire(msg.sender == seller, \"Only the seller can request a title transfer.\");\r\n\t\temit title_transfer_requested();\r\n\t}\r\n\r\n\t\t// Handle title transfer response\r\n\tfunction title_transfer_response(bytes32 _title_draft_hash)\r\n\tpublic openEscrow\r\n\t{\r\n\t\trequire(msg.sender == escrowOracle, \"Authorization unsuccessful\");\r\n\t\ttitle_draft_hash = _title_draft_hash;\r\n\t}\r\n\r\n\t\t// Handle buyer and seller responses to title transfer completion\r\n\tfunction title_draft_greenlight(bytes32 _title_draft_hash, bool _status)\r\n\tpublic openEscrow\r\n\t{\r\n\t\trequire(msg.sender == seller || msg.sender == buyer);\r\n\t\trequire(_title_draft_hash == title_draft_hash, \"Title draft hash mismatch\");\r\n\r\n\t\tif (msg.sender == seller) {\r\n\t\t\tseller_title_draft_greenlight = _status;\r\n\t\t}\r\n\t\telse if (msg.sender == buyer) {\r\n\t\t\tbuyer_title_draft_greenlight = _status;\r\n\t\t}\r\n\r\n\t\tif (buyer_title_draft_greenlight && seller_title_draft_greenlight) {\r\n\t\t\temit commit_title_transfer();\r\n\t\t\tdisburse_funds();\r\n\t\t}\r\n\t}\r\n\r\n\t\t// Handle disbursement of funds and closing of escrow\r\n\tfunction disburse_funds()\r\n\tprivate openEscrow\r\n\t{\r\n\t\trequire(buyer_title_draft_greenlight == true && seller_title_draft_greenlight == true,\r\n\t\t\t\t  \"Need both parties to agree before any funds are disbursed.\");\r\n\r\n\t\tuint amount = funds;\r\n\t\tfunds = 0;\r\n\t\tseller.transfer(amount);\r\n\r\n\t\temit funds_disbursed();\r\n\t\temit release_holding_deposit();\r\n\r\n\t\topen = false;\r\n\t\temit escrow_closed();\r\n\t}\r\n\r\n\t\t// Handle requests to leave the session\r\n\tfunction terminate_escrow()\r\n\tpublic openEscrow notTerminated\r\n\t{\r\n\t\trequire(msg.sender == seller || msg.sender == buyer);\r\n\r\n\t\t// Release funds back to buyer\r\n\t\tuint amount = funds;\r\n\t\tfunds = 0;\r\n\t\tbuyer.transfer(amount);\r\n\r\n\t\tterminated = true;\r\n\t\temit escrow_terminated(msg.sender);\r\n\r\n\t\topen = false;\r\n\t\temit escrow_closed();\r\n\t}\r\n\r\n\t// Getters\r\n\tfunction get_participants()\r\n\tpublic view\r\n\treturns (address, address)\r\n\t{\r\n\t\treturn (seller, buyer);\r\n\t}\r\n\r\n\tfunction is_open()\r\n\tpublic view\r\n\treturns (bool)\r\n\t{\r\n\t\treturn open;\r\n\t}\r\n\r\n\tfunction is_deposit_locked()\r\n\tpublic view\r\n\treturns (bool)\r\n\t{\r\n\t\treturn locked;\r\n\t}\r\n}\r\n",
  "sourcePath": "/home/utkarsh/src/final-year-project/contracts/contracts/Escrow.sol",
  "compiler": {
    "name": "solc",
    "version": "0.5.7+commit.6da8b019.Emscripten.clang"
  },
  "schemaVersion": "3.0.5",
  "updatedAt": "2022-10-04T14:51:11.585Z",
  "devdoc": {
    "methods": {}
  },
  "userdoc": {
    "methods": {}
  }
}