{
  "contractName": "HoldingDeposit",
  "abi": [
    {
      "inputs": [
        {
          "name": "_seller",
          "type": "address"
        }
      ],
      "payable": false,
      "stateMutability": "nonpayable",
      "type": "constructor"
    },
    {
      "anonymous": false,
      "inputs": [
        {
          "indexed": false,
          "name": "buyer",
          "type": "address"
        },
        {
          "indexed": false,
          "name": "value",
          "type": "uint256"
        }
      ],
      "name": "funds_deposited",
      "type": "event"
    },
    {
      "anonymous": false,
      "inputs": [
        {
          "indexed": false,
          "name": "sender",
          "type": "address"
        },
        {
          "indexed": false,
          "name": "status",
          "type": "bool"
        }
      ],
      "name": "status_updated",
      "type": "event"
    },
    {
      "anonymous": false,
      "inputs": [
        {
          "indexed": false,
          "name": "status",
          "type": "bool"
        }
      ],
      "name": "deposit_status_updated",
      "type": "event"
    },
    {
      "anonymous": false,
      "inputs": [
        {
          "indexed": false,
          "name": "receiver",
          "type": "address"
        },
        {
          "indexed": false,
          "name": "amount",
          "type": "uint256"
        }
      ],
      "name": "deposit_withdrawn",
      "type": "event"
    },
    {
      "anonymous": false,
      "inputs": [],
      "name": "hd_closed",
      "type": "event"
    },
    {
      "constant": false,
      "inputs": [],
      "name": "deposit_funds",
      "outputs": [],
      "payable": true,
      "stateMutability": "payable",
      "type": "function"
    },
    {
      "constant": false,
      "inputs": [
        {
          "name": "_status",
          "type": "bool"
        }
      ],
      "name": "update_status",
      "outputs": [],
      "payable": false,
      "stateMutability": "nonpayable",
      "type": "function"
    },
    {
      "constant": false,
      "inputs": [
        {
          "name": "_status",
          "type": "bool"
        }
      ],
      "name": "update_deposit_status",
      "outputs": [],
      "payable": false,
      "stateMutability": "nonpayable",
      "type": "function"
    },
    {
      "constant": false,
      "inputs": [],
      "name": "release_deposit",
      "outputs": [],
      "payable": false,
      "stateMutability": "nonpayable",
      "type": "function"
    },
    {
      "constant": true,
      "inputs": [],
      "name": "get_participants",
      "outputs": [
        {
          "name": "",
          "type": "address"
        },
        {
          "name": "",
          "type": "address"
        }
      ],
      "payable": false,
      "stateMutability": "view",
      "type": "function"
    },
    {
      "constant": true,
      "inputs": [],
      "name": "is_refundable",
      "outputs": [
        {
          "name": "",
          "type": "bool"
        }
      ],
      "payable": false,
      "stateMutability": "view",
      "type": "function"
    },
    {
      "constant": true,
      "inputs": [],
      "name": "is_open",
      "outputs": [
        {
          "name": "",
          "type": "bool"
        }
      ],
      "payable": false,
      "stateMutability": "view",
      "type": "function"
    },
    {
      "constant": true,
      "inputs": [],
      "name": "get_deposit_amount",
      "outputs": [
        {
          "name": "",
          "type": "uint256"
        }
      ],
      "payable": false,
      "stateMutability": "view",
      "type": "function"
    },
    {
      "constant": true,
      "inputs": [],
      "name": "get_buyer_status",
      "outputs": [
        {
          "name": "",
          "type": "bool"
        }
      ],
      "payable": false,
      "stateMutability": "view",
      "type": "function"
    },
    {
      "constant": true,
      "inputs": [],
      "name": "get_seller_status",
      "outputs": [
        {
          "name": "",
          "type": "bool"
        }
      ],
      "payable": false,
      "stateMutability": "view",
      "type": "function"
    }
  ],
  "bytecode": "0x6080604052738a23c7c42333ed6be5a68c24031cd7a737fbcbe8600260006101000a81548173ffffffffffffffffffffffffffffffffffffffff021916908373ffffffffffffffffffffffffffffffffffffffff1602179055506000600460006101000a81548160ff0219169083151502179055506000600460016101000a81548160ff0219169083151502179055506000600460026101000a81548160ff0219169083151502179055506000600460036101000a81548160ff02191690831515021790555060016004806101000a81548160ff0219169083151502179055503480156100eb57600080fd5b506040516020806112cc8339810180604052602081101561010b57600080fd5b810190808051906020019092919050505080600160006101000a81548173ffffffffffffffffffffffffffffffffffffffff021916908373ffffffffffffffffffffffffffffffffffffffff1602179055506001600460006101000a81548160ff0219169083151502179055506001600460026101000a81548160ff02191690831515021790555050611129806101a36000396000f3fe6080604052600436106100915760003560e01c8063695394ea11610059578063695394ea146101c55780638eb5e169146101f05780638fb9e30a14610207578063b45978d014610244578063d659d9681461027357610091565b806302bb9f421461009657806313d14b781461012057806313ee6a731461014f57806321f74915146101595780633abe61ce14610196575b600080fd5b3480156100a257600080fd5b506100ab6102a2565b604051808373ffffffffffffffffffffffffffffffffffffffff1673ffffffffffffffffffffffffffffffffffffffff1681526020018273ffffffffffffffffffffffffffffffffffffffff1673ffffffffffffffffffffffffffffffffffffffff1681526020019250505060405180910390f35b34801561012c57600080fd5b506101356102f8565b604051808215151515815260200191505060405180910390f35b61015761030e565b005b34801561016557600080fd5b506101946004803603602081101561017c57600080fd5b81019080803515159060200190929190505050610587565b005b3480156101a257600080fd5b506101ab6107e6565b604051808215151515815260200191505060405180910390f35b3480156101d157600080fd5b506101da610862565b6040518082815260200191505060405180910390f35b3480156101fc57600080fd5b5061020561086c565b005b34801561021357600080fd5b506102426004803603602081101561022a57600080fd5b8101908080351515906020019092919050505061095b565b005b34801561025057600080fd5b50610259610bc6565b604051808215151515815260200191505060405180910390f35b34801561027f57600080fd5b50610288610c42565b604051808215151515815260200191505060405180910390f35b600080600160009054906101000a900473ffffffffffffffffffffffffffffffffffffffff166000809054906101000a900473ffffffffffffffffffffffffffffffffffffffff16819150809050915091509091565b60006004809054906101000a900460ff16905090565b600460029054906101000a900460ff16610373576040517f08c379a000000000000000000000000000000000000000000000000000000000815260040180806020018281038252602981526020018061106e6029913960400191505060405180910390fd5b600460039054906101000a900460ff16156103f6576040517f08c379a00000000000000000000000000000000000000000000000000000000081526004018080602001828103825260108152602001807f4e6f206d6f7265206465706f736974730000000000000000000000000000000081525060200191505060405180910390fd5b600160009054906101000a900473ffffffffffffffffffffffffffffffffffffffff1673ffffffffffffffffffffffffffffffffffffffff163373ffffffffffffffffffffffffffffffffffffffff16141561049d576040517f08c379a000000000000000000000000000000000000000000000000000000000815260040180806020018281038252602d815260200180611004602d913960400191505060405180910390fd5b6001600460036101000a81548160ff021916908315150217905550336000806101000a81548173ffffffffffffffffffffffffffffffffffffffff021916908373ffffffffffffffffffffffffffffffffffffffff160217905550346003819055506001600460016101000a81548160ff0219169083151502179055507fc7c1b3f805ded913973a32415839b51f7472b046809d3a83a85aea15693330d13334604051808373ffffffffffffffffffffffffffffffffffffffff1673ffffffffffffffffffffffffffffffffffffffff1681526020018281526020019250505060405180910390a1565b600460029054906101000a900460ff166105ec576040517f08c379a000000000000000000000000000000000000000000000000000000000815260040180806020018281038252602981526020018061106e6029913960400191505060405180910390fd5b6000809054906101000a900473ffffffffffffffffffffffffffffffffffffffff1673ffffffffffffffffffffffffffffffffffffffff163373ffffffffffffffffffffffffffffffffffffffff1614806106945750600160009054906101000a900473ffffffffffffffffffffffffffffffffffffffff1673ffffffffffffffffffffffffffffffffffffffff163373ffffffffffffffffffffffffffffffffffffffff16145b6106e9576040517f08c379a000000000000000000000000000000000000000000000000000000000815260040180806020018281038252603d815260200180611031603d913960400191505060405180910390fd5b600160009054906101000a900473ffffffffffffffffffffffffffffffffffffffff1673ffffffffffffffffffffffffffffffffffffffff163373ffffffffffffffffffffffffffffffffffffffff161461078f576040517f08c379a000000000000000000000000000000000000000000000000000000000815260040180806020018281038252603c815260200180611097603c913960400191505060405180910390fd5b806004806101000a81548160ff0219169083151502179055507f7c2e10bc6fec2dce37c8b702a67f1a801b63abfa3c2633d7e25ff245d3655d0c81604051808215151515815260200191505060405180910390a150565b6000600460029054906101000a900460ff1661084d576040517f08c379a000000000000000000000000000000000000000000000000000000000815260040180806020018281038252602981526020018061106e6029913960400191505060405180910390fd5b600460009054906101000a900460ff16905090565b6000600354905090565b600260009054906101000a900473ffffffffffffffffffffffffffffffffffffffff1673ffffffffffffffffffffffffffffffffffffffff163373ffffffffffffffffffffffffffffffffffffffff161461092f576040517f08c379a000000000000000000000000000000000000000000000000000000000815260040180806020018281038252601a8152602001807f417574686f72697a6174696f6e20756e7375636365737366756c00000000000081525060200191505060405180910390fd5b6109596000809054906101000a900473ffffffffffffffffffffffffffffffffffffffff16610c59565b565b600460029054906101000a900460ff166109c0576040517f08c379a000000000000000000000000000000000000000000000000000000000815260040180806020018281038252602981526020018061106e6029913960400191505060405180910390fd5b6000809054906101000a900473ffffffffffffffffffffffffffffffffffffffff1673ffffffffffffffffffffffffffffffffffffffff163373ffffffffffffffffffffffffffffffffffffffff161480610a685750600160009054906101000a900473ffffffffffffffffffffffffffffffffffffffff1673ffffffffffffffffffffffffffffffffffffffff163373ffffffffffffffffffffffffffffffffffffffff16145b610abd576040517f08c379a000000000000000000000000000000000000000000000000000000000815260040180806020018281038252603d815260200180611031603d913960400191505060405180910390fd5b6000809054906101000a900473ffffffffffffffffffffffffffffffffffffffff1673ffffffffffffffffffffffffffffffffffffffff163373ffffffffffffffffffffffffffffffffffffffff161415610b315780600460016101000a81548160ff021916908315150217905550610b4c565b80600460006101000a81548160ff0219169083151502179055505b7f8ccded3c3839def5815fec37a327366b2f6e1b39e3400f528d7f299bace67e0e3382604051808373ffffffffffffffffffffffffffffffffffffffff1673ffffffffffffffffffffffffffffffffffffffff168152602001821515151581526020019250505060405180910390a1610bc3610f15565b50565b6000600460029054906101000a900460ff16610c2d576040517f08c379a000000000000000000000000000000000000000000000000000000000815260040180806020018281038252602981526020018061106e6029913960400191505060405180910390fd5b600460019054906101000a900460ff16905090565b6000600460029054906101000a900460ff16905090565b600160009054906101000a900473ffffffffffffffffffffffffffffffffffffffff1673ffffffffffffffffffffffffffffffffffffffff168173ffffffffffffffffffffffffffffffffffffffff161480610d0157506000809054906101000a900473ffffffffffffffffffffffffffffffffffffffff1673ffffffffffffffffffffffffffffffffffffffff168173ffffffffffffffffffffffffffffffffffffffff16145b610d56576040517f08c379a000000000000000000000000000000000000000000000000000000000815260040180806020018281038252602b8152602001806110d3602b913960400191505060405180910390fd5b600060035414610ecb576000600354905060006003819055506000600160009054906101000a900473ffffffffffffffffffffffffffffffffffffffff1673ffffffffffffffffffffffffffffffffffffffff168373ffffffffffffffffffffffffffffffffffffffff161415610df157600160009054906101000a900473ffffffffffffffffffffffffffffffffffffffff169050610e16565b6000809054906101000a900473ffffffffffffffffffffffffffffffffffffffff1690505b8073ffffffffffffffffffffffffffffffffffffffff166108fc839081150290604051600060405180830381858888f19350505050158015610e5c573d6000803e3d6000fd5b507f39bb2fc047ce133db19b8ea5f97f0f5a13a5b2ecfffcbd5df2caaf2edcddc9e08183604051808373ffffffffffffffffffffffffffffffffffffffff1673ffffffffffffffffffffffffffffffffffffffff1681526020018281526020019250505060405180910390a150505b6000600460026101000a81548160ff0219169083151502179055507f75aae55e48045fff0a38d59d6294adad5fc9412f4561917a364e47e2aeab136760405160405180910390a150565b60001515600460009054906101000a900460ff1615151415610f6057610f5b6000809054906101000a900473ffffffffffffffffffffffffffffffffffffffff16610c59565b611001565b60001515600460019054906101000a900460ff1615151415611000576004809054906101000a900460ff1615610fbf57610fba6000809054906101000a900473ffffffffffffffffffffffffffffffffffffffff16610c59565b610fff565b6004809054906101000a900460ff16610ffe57610ffd600160009054906101000a900473ffffffffffffffffffffffffffffffffffffffff16610c59565b5b5b5b5b56fe53656c6c65722063616e6e6f74206465706f73697420696e746f207468656972206f776e20686f6c64696e672e4f6e6c79207061727469636970616e747320696e207468697320636f6e74726163742063616e20696e766f6b652074686573652066756e6374696f6e735468697320686f6c64696e67206465706f73697420636f6e74726163742068617320636c6f7365642e4f6e6c79207468652073656c6c65722063616e20696e69746961746520616e2075706461746520746f20746865206465706f736974207374617475734f6e6c79207061727469636970616e74732063616e20686176652066756e64732077697468647261776e2ea165627a7a7230582087f9e2853fb90dae373623fbd8a1f2e09ae5ed91adce5b57603da7f71637c8ae0029",
  "source": "pragma solidity ^0.5.7;\r\n\r\n\r\ncontract HoldingDepositFactory {\r\n\r\n\t// State\r\n\tmapping(bytes32 => address) holding_deposit_contracts;\r\n\r\n\r\n\t// Events\r\n\tevent holding_deposit_created(bytes32 session_id_hash, address holding_deposit_contract);\r\n\r\n\r\n\t// Behaviour\r\n\tfunction open_holding_deposit(bytes32 _session_id_hash)\r\n\tpublic\r\n\t{\r\n\t\taddress holding_deposit_contract = address(new HoldingDeposit(msg.sender));\r\n\t\tholding_deposit_contracts[_session_id_hash] = holding_deposit_contract;\r\n\r\n\t\temit holding_deposit_created(_session_id_hash, holding_deposit_contract);\r\n\t}\r\n\r\n\tfunction get_holding_deposit_contract(bytes32 _session_id_hash)\r\n\tpublic view\r\n\treturns (address)\r\n\t{\r\n\t\treturn holding_deposit_contracts[_session_id_hash];\r\n\t}\r\n}\r\n\r\ncontract HoldingDeposit {\r\n\r\n\t// State\r\n\taddress payable buyer;\r\n\taddress payable seller;\r\n\taddress private authority = 0x8a23c7C42333ed6be5a68c24031cd7A737fbcBE8;\r\n\tuint deposit;\r\n\r\n\tbool seller_status = false;\r\n\tbool buyer_status = false;\r\n\tbool open = false;\r\n\tbool locked = false;\r\n\tbool deposit_refundable = true;\r\n\r\n\r\n\t// Constructor\r\n\tconstructor(address payable _seller)\r\n\tpublic\r\n\t{\r\n\t\t// Add seller to the contract\r\n\t\tseller = _seller;\r\n\t\tseller_status = true;\r\n\t\topen = true;\r\n\t}\r\n\r\n\r\n\t// Modifiers\r\n\tmodifier openHolding() {\r\n\t\trequire(open, \"This holding deposit contract has closed.\");\r\n\t\t_;\r\n\t}\r\n\r\n\tmodifier onlyParticipants() {\r\n\t\trequire(msg.sender == buyer || msg.sender == seller,\r\n\t\t\t\t \"Only participants in this contract can invoke these functions\");\r\n\t\t_;\r\n\t}\r\n\r\n\r\n\t// Events\r\n\tevent funds_deposited(address buyer, uint value);\r\n\tevent status_updated(address sender, bool status);\r\n\tevent deposit_status_updated(bool status);\r\n\tevent deposit_withdrawn(address receiver, uint amount);\r\n\tevent hd_closed();\r\n\r\n\t// Functions\r\n\tfunction deposit_funds()\r\n\tpublic payable openHolding\r\n\t{\r\n\t\trequire(!locked, \"No more deposits\");\r\n\t\trequire(msg.sender != seller, \"Seller cannot deposit into their own holding.\");\r\n\t\tlocked = true;\r\n\r\n\t\tbuyer = msg.sender;\r\n\t\tdeposit = msg.value;\r\n\t\tbuyer_status = true;\r\n\r\n\t\temit funds_deposited(msg.sender, msg.value);\r\n\t}\r\n\r\n\tfunction update_status(bool _status)\r\n\tpublic openHolding onlyParticipants\r\n\t{\r\n\t\tif (msg.sender == buyer) {\r\n\t\t\tbuyer_status = _status;\r\n\t\t}\r\n\t\telse {\r\n\t\t\tseller_status = _status;\r\n\t\t}\r\n\r\n\t\temit status_updated(msg.sender, _status);\r\n\r\n\t\tcheck_deposit_status();\r\n\t}\r\n\r\n\tfunction update_deposit_status(bool _status)\r\n\tpublic openHolding onlyParticipants\r\n\t{\r\n\t\trequire(msg.sender == seller, \"Only the seller can initiate an update to the deposit status\");\r\n\t\tdeposit_refundable = _status;\r\n\t\temit deposit_status_updated(_status);\r\n\t}\r\n\r\n\tfunction withdraw(address payable _receiver)\r\n\tprivate\r\n\t{\r\n\t\trequire(_receiver == seller || _receiver == buyer, \"Only participants can have funds withdrawn.\");\r\n\r\n\t\tif (deposit != 0) {\r\n\r\n\t\t\tuint deposit_amount = deposit;\r\n\t\t\tdeposit = 0;\r\n\t\t\taddress payable receiver;\r\n\r\n\t\t\t// Determine receiver of deposit\r\n\t\t\tif (_receiver == seller) {\r\n\t\t\t\treceiver = seller;\r\n\t\t\t}\r\n\t\t\telse {\r\n\t\t\t\treceiver = buyer;\r\n\t\t\t}\r\n\r\n\t\t\t// Withraw the deposit\r\n\t\t\treceiver.transfer(deposit_amount);\r\n\t\t\temit deposit_withdrawn(receiver, deposit_amount);\r\n\t\t}\r\n\r\n\t\t// Close the holding deposit contract\r\n\t\topen = false;\r\n\t\temit hd_closed();\r\n\t}\r\n\r\n\tfunction check_deposit_status()\r\n\tprivate\r\n\t{\r\n\t\t// If seller says no, buyer is refunded deposit\r\n\t\tif (seller_status == false) {\r\n\t\t\twithdraw(buyer);\r\n\t\t}\r\n\t\telse if (buyer_status == false) {\r\n\t\t\t// Check status of deposit\r\n\t\t\tif (deposit_refundable) {\r\n\t\t\t\twithdraw(buyer);\r\n\t\t\t}\r\n\t\t\telse if (!deposit_refundable) {\r\n\t\t\t\twithdraw(seller);\r\n\t\t\t}\r\n\t\t}\r\n\t}\r\n\r\n\t\t// Release deposit upon escrow completion\r\n\tfunction release_deposit()\r\n\tpublic\r\n\t{\r\n\t\trequire(msg.sender == authority, \"Authorization unsuccessful\");\r\n\t\twithdraw(buyer);\r\n\t}\r\n\r\n\r\n\t// Getters\r\n\tfunction get_participants()\r\n\tpublic view\r\n\treturns (address, address)\r\n\t{\r\n\t\treturn (seller, buyer);\r\n\t}\r\n\r\n\tfunction is_refundable()\r\n\tpublic view\r\n\treturns (bool)\r\n\t{\r\n\t\treturn deposit_refundable;\r\n\t}\r\n\r\n\tfunction is_open()\r\n\tpublic view\r\n\treturns (bool)\r\n\t{\r\n\t\treturn open;\r\n\t}\r\n\r\n\tfunction get_deposit_amount()\r\n\tpublic view\r\n\treturns (uint)\r\n\t{\r\n\t\treturn deposit;\r\n\t}\r\n\r\n\tfunction get_buyer_status()\r\n\tpublic view openHolding\r\n\treturns (bool)\r\n\t{\r\n\t\treturn buyer_status;\r\n\t}\r\n\r\n\tfunction get_seller_status()\r\n\tpublic view openHolding\r\n\treturns (bool)\r\n\t{\r\n\t\treturn seller_status;\r\n\t}\r\n}\r\n",
  "sourcePath": "/home/utkarsh/src/final-year-project/contracts/contracts/HoldingDeposit.sol",
  "compiler": {
    "name": "solc",
    "version": "0.5.7+commit.6da8b019.Emscripten.clang"
  },
  "schemaVersion": "3.0.5",
  "updatedAt": "2022-10-04T14:51:36.169Z",
  "devdoc": {
    "methods": {}
  },
  "userdoc": {
    "methods": {}
  }
}